{
  "contractName": "Election",
  "abi": [
    {
      "inputs": [],
      "payable": false,
      "stateMutability": "nonpayable",
      "type": "constructor"
    },
    {
      "anonymous": false,
      "inputs": [
        {
          "indexed": true,
          "internalType": "uint256",
          "name": "_candidateId",
          "type": "uint256"
        }
      ],
      "name": "votedEvent",
      "type": "event"
    },
    {
      "constant": true,
      "inputs": [],
      "name": "candidatesCount",
      "outputs": [
        {
          "internalType": "uint256",
          "name": "",
          "type": "uint256"
        }
      ],
      "payable": false,
      "stateMutability": "view",
      "type": "function"
    },
    {
      "constant": true,
      "inputs": [
        {
          "internalType": "uint256",
          "name": "",
          "type": "uint256"
        }
      ],
      "name": "electionCandidates",
      "outputs": [
        {
          "internalType": "uint256",
          "name": "id",
          "type": "uint256"
        },
        {
          "internalType": "string",
          "name": "name",
          "type": "string"
        },
        {
          "internalType": "uint256",
          "name": "voteCount",
          "type": "uint256"
        },
        {
          "internalType": "string",
          "name": "details",
          "type": "string"
        }
      ],
      "payable": false,
      "stateMutability": "view",
      "type": "function"
    },
    {
      "constant": true,
      "inputs": [
        {
          "internalType": "uint256",
          "name": "",
          "type": "uint256"
        }
      ],
      "name": "voterList",
      "outputs": [
        {
          "internalType": "uint256",
          "name": "id",
          "type": "uint256"
        },
        {
          "internalType": "string",
          "name": "name",
          "type": "string"
        },
        {
          "internalType": "string",
          "name": "details",
          "type": "string"
        },
        {
          "internalType": "bool",
          "name": "hasVoted",
          "type": "bool"
        }
      ],
      "payable": false,
      "stateMutability": "view",
      "type": "function"
    },
    {
      "constant": true,
      "inputs": [],
      "name": "votersCount",
      "outputs": [
        {
          "internalType": "uint256",
          "name": "",
          "type": "uint256"
        }
      ],
      "payable": false,
      "stateMutability": "view",
      "type": "function"
    },
    {
      "constant": false,
      "inputs": [
        {
          "internalType": "string",
          "name": "election_id",
          "type": "string"
        },
        {
          "internalType": "string",
          "name": "name",
          "type": "string"
        }
      ],
      "name": "setElection",
      "outputs": [],
      "payable": false,
      "stateMutability": "nonpayable",
      "type": "function"
    },
    {
      "constant": true,
      "inputs": [],
      "name": "getElectionName",
      "outputs": [
        {
          "internalType": "string",
          "name": "",
          "type": "string"
        }
      ],
      "payable": false,
      "stateMutability": "view",
      "type": "function"
    },
    {
      "constant": true,
      "inputs": [],
      "name": "getElectionId",
      "outputs": [
        {
          "internalType": "string",
          "name": "",
          "type": "string"
        }
      ],
      "payable": false,
      "stateMutability": "view",
      "type": "function"
    },
    {
      "constant": false,
      "inputs": [
        {
          "internalType": "uint256",
          "name": "_id",
          "type": "uint256"
        },
        {
          "internalType": "string",
          "name": "_name",
          "type": "string"
        },
        {
          "internalType": "string",
          "name": "_details",
          "type": "string"
        }
      ],
      "name": "addCandidate",
      "outputs": [],
      "payable": false,
      "stateMutability": "nonpayable",
      "type": "function"
    },
    {
      "constant": false,
      "inputs": [
        {
          "internalType": "uint256",
          "name": "_id",
          "type": "uint256"
        },
        {
          "internalType": "string",
          "name": "_userName",
          "type": "string"
        },
        {
          "internalType": "string",
          "name": "_details",
          "type": "string"
        }
      ],
      "name": "addVoter",
      "outputs": [],
      "payable": false,
      "stateMutability": "nonpayable",
      "type": "function"
    },
    {
      "constant": false,
      "inputs": [
        {
          "internalType": "uint256",
          "name": "_voterId",
          "type": "uint256"
        },
        {
          "internalType": "uint256",
          "name": "_candidateId",
          "type": "uint256"
        }
      ],
      "name": "vote",
      "outputs": [],
      "payable": false,
      "stateMutability": "nonpayable",
      "type": "function"
    }
  ],
  "bytecode": "0x608060405234801561001057600080fd5b506111cc806100206000396000f3fe608060405234801561001057600080fd5b506004361061009e5760003560e01c806377cf01f21161006657806377cf01f21461051757806398c079381461059a578063b384abef146105b8578063e64ae4bd146105f0578063e6c62efc146107115761009e565b80631522bb87146100a35780632d35a8a2146101ff57806330e7a79c1461021d57806350e2e8af146102a05780637741fbbf146103c5575b600080fd5b6101fd600480360360608110156100b957600080fd5b8101908080359060200190929190803590602001906401000000008111156100e057600080fd5b8201836020820111156100f257600080fd5b8035906020019184600183028401116401000000008311171561011457600080fd5b91908080601f016020809104026020016040519081016040528093929190818152602001838380828437600081840152601f19601f8201169050808301925050505050505091929192908035906020019064010000000081111561017757600080fd5b82018360208201111561018957600080fd5b803590602001918460018302840111640100000000831117156101ab57600080fd5b91908080601f016020809104026020016040519081016040528093929190818152602001838380828437600081840152601f19601f82011690508083019250505050505050919291929050505061086d565b005b610207610922565b6040518082815260200191505060405180910390f35b610225610928565b6040518080602001828103825283818151815260200191508051906020019080838360005b8381101561026557808201518184015260208101905061024a565b50505050905090810190601f1680156102925780820380516001836020036101000a031916815260200191505b509250505060405180910390f35b6102cc600480360360208110156102b657600080fd5b81019080803590602001909291905050506109ca565b60405180858152602001806020018060200184151515158152602001838103835286818151815260200191508051906020019080838360005b83811015610320578082015181840152602081019050610305565b50505050905090810190601f16801561034d5780820380516001836020036101000a031916815260200191505b50838103825285818151815260200191508051906020019080838360005b8381101561038657808201518184015260208101905061036b565b50505050905090810190601f1680156103b35780820380516001836020036101000a031916815260200191505b50965050505050505060405180910390f35b610515600480360360408110156103db57600080fd5b81019080803590602001906401000000008111156103f857600080fd5b82018360208201111561040a57600080fd5b8035906020019184600183028401116401000000008311171561042c57600080fd5b91908080601f016020809104026020016040519081016040528093929190818152602001838380828437600081840152601f19601f8201169050808301925050505050505091929192908035906020019064010000000081111561048f57600080fd5b8201836020820111156104a157600080fd5b803590602001918460018302840111640100000000831117156104c357600080fd5b91908080601f016020809104026020016040519081016040528093929190818152602001838380828437600081840152601f19601f820116905080830192505050505050509192919290505050610b37565b005b61051f610baa565b6040518080602001828103825283818151815260200191508051906020019080838360005b8381101561055f578082015181840152602081019050610544565b50505050905090810190601f16801561058c5780820380516001836020036101000a031916815260200191505b509250505060405180910390f35b6105a2610c4c565b6040518082815260200191505060405180910390f35b6105ee600480360360408110156105ce57600080fd5b810190808035906020019092919080359060200190929190505050610c52565b005b61061c6004803603602081101561060657600080fd5b8101908080359060200190929190505050610e75565b604051808581526020018060200184815260200180602001838103835286818151815260200191508051906020019080838360005b8381101561066c578082015181840152602081019050610651565b50505050905090810190601f1680156106995780820380516001836020036101000a031916815260200191505b50838103825284818151815260200191508051906020019080838360005b838110156106d25780820151818401526020810190506106b7565b50505050905090810190601f1680156106ff5780820380516001836020036101000a031916815260200191505b50965050505050505060405180910390f35b61086b6004803603606081101561072757600080fd5b81019080803590602001909291908035906020019064010000000081111561074e57600080fd5b82018360208201111561076057600080fd5b8035906020019184600183028401116401000000008311171561078257600080fd5b91908080601f016020809104026020016040519081016040528093929190818152602001838380828437600081840152601f19601f820116905080830192505050505050509192919290803590602001906401000000008111156107e557600080fd5b8201836020820111156107f757600080fd5b8035906020019184600183028401116401000000008311171561081957600080fd5b91908080601f016020809104026020016040519081016040528093929190818152602001838380828437600081840152601f19601f820116905080830192505050505050509192919290505050610fd5565b005b600560008154809291906001019190505550604051806080016040528084815260200183815260200182815260200160001515815250600460008581526020019081526020016000206000820151816000015560208201518160010190805190602001906108dc929190611072565b5060408201518160020190805190602001906108f9929190611072565b5060608201518160030160006101000a81548160ff021916908315150217905550905050505050565b60065481565b606060018054600181600116156101000203166002900480601f0160208091040260200160405190810160405280929190818152602001828054600181600116156101000203166002900480156109c05780601f10610995576101008083540402835291602001916109c0565b820191906000526020600020905b8154815290600101906020018083116109a357829003601f168201915b5050505050905090565b6004602052806000526040600020600091509050806000015490806001018054600181600116156101000203166002900480601f016020809104026020016040519081016040528092919081815260200182805460018160011615610100020316600290048015610a7c5780601f10610a5157610100808354040283529160200191610a7c565b820191906000526020600020905b815481529060010190602001808311610a5f57829003601f168201915b505050505090806002018054600181600116156101000203166002900480601f016020809104026020016040519081016040528092919081815260200182805460018160011615610100020316600290048015610b1a5780601f10610aef57610100808354040283529160200191610b1a565b820191906000526020600020905b815481529060010190602001808311610afd57829003601f168201915b5050505050908060030160009054906101000a900460ff16905084565b8160009080519060200190610b4d9291906110f2565b508060019080519060200190610b649291906110f2565b5033600260006101000a81548173ffffffffffffffffffffffffffffffffffffffff021916908373ffffffffffffffffffffffffffffffffffffffff1602179055505050565b606060008054600181600116156101000203166002900480601f016020809104026020016040519081016040528092919081815260200182805460018160011615610100020316600290048015610c425780601f10610c1757610100808354040283529160200191610c42565b820191906000526020600020905b815481529060010190602001808311610c2557829003601f168201915b5050505050905090565b60055481565b600082118015610c6457506005548211155b610cd6576040517f08c379a00000000000000000000000000000000000000000000000000000000081526004018080602001828103825260108152602001807f496e76616c696420766f7465722069640000000000000000000000000000000081525060200191505060405180910390fd5b600081118015610ce65750808111155b610d58576040517f08c379a00000000000000000000000000000000000000000000000000000000081526004018080602001828103825260148152602001807f496e76616c69642063616e64696461746520696400000000000000000000000081525060200191505060405180910390fd5b6004600083815260200190815260200160002060030160009054906101000a900460ff1615610def576040517f08c379a000000000000000000000000000000000000000000000000000000000815260040180806020018281038252601c8152602001807f54686520566f7465722068617320616c726561647920766f7465642e0000000081525060200191505060405180910390fd5b600360008281526020019081526020016000206002016000815480929190600101919050555060016004600084815260200190815260200160002060030160006101000a81548160ff021916908315150217905550817ffff3c900d938d21d0990d786e819f29b8d05c1ef587b462b939609625b684b1660405160405180910390a25050565b6003602052806000526040600020600091509050806000015490806001018054600181600116156101000203166002900480601f016020809104026020016040519081016040528092919081815260200182805460018160011615610100020316600290048015610f275780601f10610efc57610100808354040283529160200191610f27565b820191906000526020600020905b815481529060010190602001808311610f0a57829003601f168201915b505050505090806002015490806003018054600181600116156101000203166002900480601f016020809104026020016040519081016040528092919081815260200182805460018160011615610100020316600290048015610fcb5780601f10610fa057610100808354040283529160200191610fcb565b820191906000526020600020905b815481529060010190602001808311610fae57829003601f168201915b5050505050905084565b6006600081548092919060010191905055506040518060800160405280848152602001838152602001600081526020018281525060036000858152602001908152602001600020600082015181600001556020820151816001019080519060200190611042929190611072565b50604082015181600201556060820151816003019080519060200190611069929190611072565b50905050505050565b828054600181600116156101000203166002900490600052602060002090601f016020900481019282601f106110b357805160ff19168380011785556110e1565b828001600101855582156110e1579182015b828111156110e05782518255916020019190600101906110c5565b5b5090506110ee9190611172565b5090565b828054600181600116156101000203166002900490600052602060002090601f016020900481019282601f1061113357805160ff1916838001178555611161565b82800160010185558215611161579182015b82811115611160578251825591602001919060010190611145565b5b50905061116e9190611172565b5090565b61119491905b80821115611190576000816000905550600101611178565b5090565b9056fea265627a7a72315820b02fb384bd1c9b27ade0f6feb734bb7dae2e15987ff4a0514ba11f9639f0920e64736f6c63430005100032",
  "source": "pragma solidity >=0.5.16;\r\n\r\ncontract Election {\r\n\r\n    string electionId;\r\n    string electionName;\r\n    address electionAddress;\r\n    mapping(uint => Candidate) public electionCandidates;\r\n    mapping(uint => Voter) public voterList;\r\n\r\n    constructor() public {}\r\n\r\n    function setElection(string memory election_id, string memory name) public {\r\n        electionId = election_id;\r\n        electionName = name;\r\n        electionAddress = msg.sender;\r\n    }\r\n\r\n    function getElectionName() public view returns (string memory) {\r\n        return electionName;\r\n    }\r\n\r\n    function getElectionId() public view returns (string memory) {\r\n        return electionId;\r\n    }\r\n\r\n    struct Candidate {\r\n        uint id;\r\n        string name;\r\n        uint voteCount;\r\n        string details;\r\n    }\r\n\r\n    struct Voter {\r\n        uint id;\r\n        string name;\r\n        string details;\r\n        bool hasVoted;\r\n    }\r\n\r\n    event votedEvent(uint indexed _candidateId);\r\n\r\n    uint public votersCount;\r\n    uint public candidatesCount;\r\n\r\n    function addCandidate(uint _id, string memory _name, string memory _details) public {\r\n        candidatesCount++;\r\n        electionCandidates[_id] = (Candidate(_id, _name, 0, _details));\r\n    }\r\n\r\n    function castVoteForCandidate(uint _candidate_id) private {\r\n        electionCandidates[_candidate_id].voteCount ++;\r\n    }\r\n\r\n    function addVoter(uint _id, string memory _userName, string memory _details) public {\r\n        votersCount++;\r\n        voterList[_id] = Voter(_id, _userName, _details, false);\r\n    }\r\n\r\n    function vote(uint _voterId, uint _candidateId) public {\r\n\r\n        require(_voterId > 0 && _voterId <= votersCount, 'Invalid voter id');\r\n        require(_candidateId > 0 && _candidateId <= _candidateId, 'Invalid candidate id');\r\n\r\n        // Check for Double voting\r\n        require(!voterList[_voterId].hasVoted, 'The Voter has already voted.');\r\n\r\n        // Increment the vote of the candidate\r\n        electionCandidates[_candidateId].voteCount++;\r\n\r\n        // Mark the voter as voted\r\n        voterList[_voterId].hasVoted = true;\r\n    \r\n        // Emit the event that the voter has voted\r\n        emit votedEvent(_voterId);\r\n    }\r\n\r\n}",
  "sourcePath": "c:\\DATA\\workspace\\blockchain\\Blockchain-EVoting-UI\\src\\contracts\\Election.sol",
  "compiler": {
    "name": "solc",
    "version": "0.5.16+commit.9c3226ce.Emscripten.clang"
  },
  "schemaVersion": "3.4.3",
  "updatedAt": "2021-10-29T20:13:14.700Z",
  "networkType": "ethereum",
  "devdoc": {
    "methods": {}
  },
  "userdoc": {
    "methods": {}
  }
}