{
  "contractName": "Election",
  "abi": [
    {
      "inputs": [],
      "payable": false,
      "stateMutability": "nonpayable",
      "type": "constructor"
    },
    {
      "anonymous": false,
      "inputs": [
        {
          "indexed": true,
          "internalType": "uint256",
          "name": "_candidateId",
          "type": "uint256"
        }
      ],
      "name": "votedEvent",
      "type": "event"
    },
    {
      "constant": true,
      "inputs": [],
      "name": "candidatesCount",
      "outputs": [
        {
          "internalType": "uint256",
          "name": "",
          "type": "uint256"
        }
      ],
      "payable": false,
      "stateMutability": "view",
      "type": "function"
    },
    {
      "constant": true,
      "inputs": [
        {
          "internalType": "uint256",
          "name": "",
          "type": "uint256"
        }
      ],
      "name": "electionCandidates",
      "outputs": [
        {
          "internalType": "uint256",
          "name": "id",
          "type": "uint256"
        },
        {
          "internalType": "string",
          "name": "name",
          "type": "string"
        },
        {
          "internalType": "uint256",
          "name": "voteCount",
          "type": "uint256"
        },
        {
          "internalType": "string",
          "name": "details",
          "type": "string"
        }
      ],
      "payable": false,
      "stateMutability": "view",
      "type": "function"
    },
    {
      "constant": true,
      "inputs": [
        {
          "internalType": "uint256",
          "name": "",
          "type": "uint256"
        }
      ],
      "name": "voterList",
      "outputs": [
        {
          "internalType": "uint256",
          "name": "id",
          "type": "uint256"
        },
        {
          "internalType": "string",
          "name": "name",
          "type": "string"
        },
        {
          "internalType": "string",
          "name": "details",
          "type": "string"
        },
        {
          "internalType": "bool",
          "name": "hasVoted",
          "type": "bool"
        }
      ],
      "payable": false,
      "stateMutability": "view",
      "type": "function"
    },
    {
      "constant": true,
      "inputs": [],
      "name": "votersCount",
      "outputs": [
        {
          "internalType": "uint256",
          "name": "",
          "type": "uint256"
        }
      ],
      "payable": false,
      "stateMutability": "view",
      "type": "function"
    },
    {
      "constant": false,
      "inputs": [
        {
          "internalType": "string",
          "name": "election_id",
          "type": "string"
        },
        {
          "internalType": "string",
          "name": "name",
          "type": "string"
        }
      ],
      "name": "setElection",
      "outputs": [],
      "payable": false,
      "stateMutability": "nonpayable",
      "type": "function"
    },
    {
      "constant": true,
      "inputs": [],
      "name": "getElectionName",
      "outputs": [
        {
          "internalType": "string",
          "name": "",
          "type": "string"
        }
      ],
      "payable": false,
      "stateMutability": "view",
      "type": "function"
    },
    {
      "constant": true,
      "inputs": [],
      "name": "getElectionId",
      "outputs": [
        {
          "internalType": "string",
          "name": "",
          "type": "string"
        }
      ],
      "payable": false,
      "stateMutability": "view",
      "type": "function"
    },
    {
      "constant": false,
      "inputs": [
        {
          "internalType": "string",
          "name": "_name",
          "type": "string"
        },
        {
          "internalType": "string",
          "name": "_details",
          "type": "string"
        }
      ],
      "name": "addCandidate",
      "outputs": [],
      "payable": false,
      "stateMutability": "nonpayable",
      "type": "function"
    },
    {
      "constant": false,
      "inputs": [
        {
          "internalType": "string",
          "name": "_userName",
          "type": "string"
        },
        {
          "internalType": "string",
          "name": "_details",
          "type": "string"
        }
      ],
      "name": "addVoter",
      "outputs": [],
      "payable": false,
      "stateMutability": "nonpayable",
      "type": "function"
    },
    {
      "constant": false,
      "inputs": [
        {
          "internalType": "uint256",
          "name": "_voterId",
          "type": "uint256"
        },
        {
          "internalType": "uint256",
          "name": "_candidateId",
          "type": "uint256"
        }
      ],
      "name": "vote",
      "outputs": [],
      "payable": false,
      "stateMutability": "nonpayable",
      "type": "function"
    }
  ],
  "bytecode": "0x608060405234801561001057600080fd5b506111c0806100206000396000f3fe608060405234801561001057600080fd5b506004361061009e5760003560e01c806377cf01f21161006657806377cf01f21461050d578063853671b91461059057806398c07938146106e2578063b384abef14610700578063e64ae4bd146107385761009e565b806326541b56146100a35780632d35a8a2146101f557806330e7a79c1461021357806350e2e8af146102965780637741fbbf146103bb575b600080fd5b6101f3600480360360408110156100b957600080fd5b81019080803590602001906401000000008111156100d657600080fd5b8201836020820111156100e857600080fd5b8035906020019184600183028401116401000000008311171561010a57600080fd5b91908080601f016020809104026020016040519081016040528093929190818152602001838380828437600081840152601f19601f8201169050808301925050505050505091929192908035906020019064010000000081111561016d57600080fd5b82018360208201111561017f57600080fd5b803590602001918460018302840111640100000000831117156101a157600080fd5b91908080601f016020809104026020016040519081016040528093929190818152602001838380828437600081840152601f19601f820116905080830192505050505050509192919290505050610859565b005b6101fd6108f9565b6040518082815260200191505060405180910390f35b61021b6108ff565b6040518080602001828103825283818151815260200191508051906020019080838360005b8381101561025b578082015181840152602081019050610240565b50505050905090810190601f1680156102885780820380516001836020036101000a031916815260200191505b509250505060405180910390f35b6102c2600480360360208110156102ac57600080fd5b81019080803590602001909291905050506109a1565b60405180858152602001806020018060200184151515158152602001838103835286818151815260200191508051906020019080838360005b838110156103165780820151818401526020810190506102fb565b50505050905090810190601f1680156103435780820380516001836020036101000a031916815260200191505b50838103825285818151815260200191508051906020019080838360005b8381101561037c578082015181840152602081019050610361565b50505050905090810190601f1680156103a95780820380516001836020036101000a031916815260200191505b50965050505050505060405180910390f35b61050b600480360360408110156103d157600080fd5b81019080803590602001906401000000008111156103ee57600080fd5b82018360208201111561040057600080fd5b8035906020019184600183028401116401000000008311171561042257600080fd5b91908080601f016020809104026020016040519081016040528093929190818152602001838380828437600081840152601f19601f8201169050808301925050505050505091929192908035906020019064010000000081111561048557600080fd5b82018360208201111561049757600080fd5b803590602001918460018302840111640100000000831117156104b957600080fd5b91908080601f016020809104026020016040519081016040528093929190818152602001838380828437600081840152601f19601f820116905080830192505050505050509192919290505050610b0e565b005b610515610b81565b6040518080602001828103825283818151815260200191508051906020019080838360005b8381101561055557808201518184015260208101905061053a565b50505050905090810190601f1680156105825780820380516001836020036101000a031916815260200191505b509250505060405180910390f35b6106e0600480360360408110156105a657600080fd5b81019080803590602001906401000000008111156105c357600080fd5b8201836020820111156105d557600080fd5b803590602001918460018302840111640100000000831117156105f757600080fd5b91908080601f016020809104026020016040519081016040528093929190818152602001838380828437600081840152601f19601f8201169050808301925050505050505091929192908035906020019064010000000081111561065a57600080fd5b82018360208201111561066c57600080fd5b8035906020019184600183028401116401000000008311171561068e57600080fd5b91908080601f016020809104026020016040519081016040528093929190818152602001838380828437600081840152601f19601f820116905080830192505050505050509192919290505050610c23565b005b6106ea610cdb565b6040518082815260200191505060405180910390f35b6107366004803603604081101561071657600080fd5b810190808035906020019092919080359060200190929190505050610ce1565b005b6107646004803603602081101561074e57600080fd5b8101908080359060200190929190505050610f06565b604051808581526020018060200184815260200180602001838103835286818151815260200191508051906020019080838360005b838110156107b4578082015181840152602081019050610799565b50505050905090810190601f1680156107e15780820380516001836020036101000a031916815260200191505b50838103825284818151815260200191508051906020019080838360005b8381101561081a5780820151818401526020810190506107ff565b50505050905090810190601f1680156108475780820380516001836020036101000a031916815260200191505b50965050505050505060405180910390f35b6006600081548092919060010191905055506040518060800160405280600654815260200183815260200160008152602001828152506003600060065481526020019081526020016000206000820151816000015560208201518160010190805190602001906108ca929190611066565b506040820151816002015560608201518160030190805190602001906108f1929190611066565b509050505050565b60065481565b606060018054600181600116156101000203166002900480601f0160208091040260200160405190810160405280929190818152602001828054600181600116156101000203166002900480156109975780601f1061096c57610100808354040283529160200191610997565b820191906000526020600020905b81548152906001019060200180831161097a57829003601f168201915b5050505050905090565b6004602052806000526040600020600091509050806000015490806001018054600181600116156101000203166002900480601f016020809104026020016040519081016040528092919081815260200182805460018160011615610100020316600290048015610a535780601f10610a2857610100808354040283529160200191610a53565b820191906000526020600020905b815481529060010190602001808311610a3657829003601f168201915b505050505090806002018054600181600116156101000203166002900480601f016020809104026020016040519081016040528092919081815260200182805460018160011615610100020316600290048015610af15780601f10610ac657610100808354040283529160200191610af1565b820191906000526020600020905b815481529060010190602001808311610ad457829003601f168201915b5050505050908060030160009054906101000a900460ff16905084565b8160009080519060200190610b249291906110e6565b508060019080519060200190610b3b9291906110e6565b5033600260006101000a81548173ffffffffffffffffffffffffffffffffffffffff021916908373ffffffffffffffffffffffffffffffffffffffff1602179055505050565b606060008054600181600116156101000203166002900480601f016020809104026020016040519081016040528092919081815260200182805460018160011615610100020316600290048015610c195780601f10610bee57610100808354040283529160200191610c19565b820191906000526020600020905b815481529060010190602001808311610bfc57829003601f168201915b5050505050905090565b6005600081548092919060010191905055506040518060800160405280600554815260200183815260200182815260200160001515815250600460006005548152602001908152602001600020600082015181600001556020820151816001019080519060200190610c96929190611066565b506040820151816002019080519060200190610cb3929190611066565b5060608201518160030160006101000a81548160ff0219169083151502179055509050505050565b60055481565b600082118015610cf357506005548211155b610d65576040517f08c379a00000000000000000000000000000000000000000000000000000000081526004018080602001828103825260108152602001807f496e76616c696420766f7465722069640000000000000000000000000000000081525060200191505060405180910390fd5b600081118015610d7757506006548111155b610de9576040517f08c379a00000000000000000000000000000000000000000000000000000000081526004018080602001828103825260148152602001807f496e76616c69642063616e64696461746520696400000000000000000000000081525060200191505060405180910390fd5b6004600083815260200190815260200160002060030160009054906101000a900460ff1615610e80576040517f08c379a000000000000000000000000000000000000000000000000000000000815260040180806020018281038252601c8152602001807f54686520566f7465722068617320616c726561647920766f7465642e0000000081525060200191505060405180910390fd5b600360008281526020019081526020016000206002016000815480929190600101919050555060016004600084815260200190815260200160002060030160006101000a81548160ff021916908315150217905550817ffff3c900d938d21d0990d786e819f29b8d05c1ef587b462b939609625b684b1660405160405180910390a25050565b6003602052806000526040600020600091509050806000015490806001018054600181600116156101000203166002900480601f016020809104026020016040519081016040528092919081815260200182805460018160011615610100020316600290048015610fb85780601f10610f8d57610100808354040283529160200191610fb8565b820191906000526020600020905b815481529060010190602001808311610f9b57829003601f168201915b505050505090806002015490806003018054600181600116156101000203166002900480601f01602080910402602001604051908101604052809291908181526020018280546001816001161561010002031660029004801561105c5780601f106110315761010080835404028352916020019161105c565b820191906000526020600020905b81548152906001019060200180831161103f57829003601f168201915b5050505050905084565b828054600181600116156101000203166002900490600052602060002090601f016020900481019282601f106110a757805160ff19168380011785556110d5565b828001600101855582156110d5579182015b828111156110d45782518255916020019190600101906110b9565b5b5090506110e29190611166565b5090565b828054600181600116156101000203166002900490600052602060002090601f016020900481019282601f1061112757805160ff1916838001178555611155565b82800160010185558215611155579182015b82811115611154578251825591602001919060010190611139565b5b5090506111629190611166565b5090565b61118891905b8082111561118457600081600090555060010161116c565b5090565b9056fea265627a7a72315820abb38e091d8f723d9afd85d9308479b38ae07c7e97341fc26709336440ed6bce64736f6c63430005100032",
  "source": "pragma solidity >=0.5.16;\r\n\r\ncontract Election {\r\n\r\n    string electionId;\r\n    string electionName;\r\n    address electionAddress;\r\n    mapping(uint => Candidate) public electionCandidates;\r\n    mapping(uint => Voter) public voterList;\r\n\r\n    constructor() public {}\r\n\r\n    function setElection(string memory election_id, string memory name) public {\r\n        electionId = election_id;\r\n        electionName = name;\r\n        electionAddress = msg.sender;\r\n    }\r\n\r\n    function getElectionName() public view returns (string memory) {\r\n        return electionName;\r\n    }\r\n\r\n    function getElectionId() public view returns (string memory) {\r\n        return electionId;\r\n    }\r\n\r\n    struct Candidate {\r\n        uint id;\r\n        string name;\r\n        uint voteCount;\r\n        string details;\r\n    }\r\n\r\n    struct Voter {\r\n        uint id;\r\n        string name;\r\n        string details;\r\n        bool hasVoted;\r\n    }\r\n\r\n    event votedEvent(uint indexed _candidateId);\r\n\r\n    uint public votersCount;\r\n    uint public candidatesCount;\r\n\r\n    function addCandidate(string memory _name, string memory _details) public {\r\n        candidatesCount++;\r\n        electionCandidates[candidatesCount] = (Candidate(candidatesCount, _name, 0, _details));\r\n    }\r\n\r\n    function castVoteForCandidate(uint _candidate_id) private {\r\n        electionCandidates[_candidate_id].voteCount ++;\r\n    }\r\n\r\n    function addVoter(string memory _userName, string memory _details) public {\r\n        votersCount++;\r\n        voterList[votersCount] = Voter(votersCount, _userName, _details, false);\r\n    }\r\n\r\n    function vote(uint _voterId, uint _candidateId) public {\r\n\r\n        require(_voterId > 0 && _voterId <= votersCount, 'Invalid voter id');\r\n        require(_candidateId > 0 && _candidateId <= candidatesCount, 'Invalid candidate id');\r\n\r\n        // Check for Double voting\r\n        require(!voterList[_voterId].hasVoted, 'The Voter has already voted.');\r\n\r\n        // Increment the vote of the candidate\r\n        electionCandidates[_candidateId].voteCount++;\r\n\r\n        // Mark the voter as voted\r\n        voterList[_voterId].hasVoted = true;\r\n    \r\n        // Emit the event that the voter has voted\r\n        emit votedEvent(_voterId);\r\n    }\r\n\r\n}",
  "sourcePath": "C:\\DATA\\workspace\\blockchain\\Blockchain-EVoting-UI\\src\\contracts\\Election.sol",
  "compiler": {
    "name": "solc",
    "version": "0.5.16+commit.9c3226ce.Emscripten.clang"
  },
  "schemaVersion": "3.4.3",
  "updatedAt": "2021-10-31T12:55:04.078Z",
  "networkType": "ethereum",
  "devdoc": {
    "methods": {}
  },
  "userdoc": {
    "methods": {}
  }
}